{
  "contractName": "Coins",
  "abi": [
    {
      "inputs": [
        {
          "internalType": "uint256",
          "name": "",
          "type": "uint256"
        }
      ],
      "name": "tokenList",
      "outputs": [
        {
          "internalType": "bytes32",
          "name": "",
          "type": "bytes32"
        }
      ],
      "stateMutability": "view",
      "type": "function"
    },
    {
      "inputs": [
        {
          "internalType": "bytes32",
          "name": "",
          "type": "bytes32"
        }
      ],
      "name": "toknes",
      "outputs": [
        {
          "internalType": "bytes32",
          "name": "ticker",
          "type": "bytes32"
        },
        {
          "internalType": "address",
          "name": "tickerAddress",
          "type": "address"
        },
        {
          "internalType": "address",
          "name": "chainLinkAddress",
          "type": "address"
        }
      ],
      "stateMutability": "view",
      "type": "function"
    },
    {
      "inputs": [
        {
          "internalType": "bytes32",
          "name": "ticker",
          "type": "bytes32"
        },
        {
          "internalType": "address",
          "name": "tickerAddress",
          "type": "address"
        },
        {
          "internalType": "address",
          "name": "chainLinkAddress",
          "type": "address"
        }
      ],
      "name": "AddToken",
      "outputs": [],
      "stateMutability": "nonpayable",
      "type": "function"
    },
    {
      "inputs": [
        {
          "internalType": "bytes32",
          "name": "ticker",
          "type": "bytes32"
        }
      ],
      "name": "GetTokenAddress",
      "outputs": [
        {
          "internalType": "address",
          "name": "",
          "type": "address"
        }
      ],
      "stateMutability": "view",
      "type": "function"
    }
  ],
  "bytecode": "0x608060405234801561001057600080fd5b50610548806100206000396000f3fe608060405234801561001057600080fd5b5060043610610069576000357c0100000000000000000000000000000000000000000000000000000000900480632824429f1461006e578063462e85df1461008a5780639ead7222146100ba578063b56e29fd146100ea575b600080fd5b610088600480360381019061008391906103a4565b61011c565b005b6100a4600480360381019061009f91906103f7565b61023e565b6040516100b19190610433565b60405180910390f35b6100d460048036038101906100cf9190610484565b61027d565b6040516100e191906104c0565b60405180910390f35b61010460048036038101906100ff91906103f7565b6102a1565b604051610113939291906104db565b60405180910390f35b60405180606001604052808481526020018373ffffffffffffffffffffffffffffffffffffffff1681526020018273ffffffffffffffffffffffffffffffffffffffff168152506000808581526020019081526020016000206000820151816000015560208201518160010160006101000a81548173ffffffffffffffffffffffffffffffffffffffff021916908373ffffffffffffffffffffffffffffffffffffffff16021790555060408201518160020160006101000a81548173ffffffffffffffffffffffffffffffffffffffff021916908373ffffffffffffffffffffffffffffffffffffffff1602179055509050506001839080600181540180825580915050600190039060005260206000200160009091909190915055505050565b600080600083815260200190815260200160002060010160009054906101000a900473ffffffffffffffffffffffffffffffffffffffff169050919050565b6001818154811061028d57600080fd5b906000526020600020016000915090505481565b60006020528060005260406000206000915090508060000154908060010160009054906101000a900473ffffffffffffffffffffffffffffffffffffffff16908060020160009054906101000a900473ffffffffffffffffffffffffffffffffffffffff16905083565b600080fd5b6000819050919050565b61032381610310565b811461032e57600080fd5b50565b6000813590506103408161031a565b92915050565b600073ffffffffffffffffffffffffffffffffffffffff82169050919050565b600061037182610346565b9050919050565b61038181610366565b811461038c57600080fd5b50565b60008135905061039e81610378565b92915050565b6000806000606084860312156103bd576103bc61030b565b5b60006103cb86828701610331565b93505060206103dc8682870161038f565b92505060406103ed8682870161038f565b9150509250925092565b60006020828403121561040d5761040c61030b565b5b600061041b84828501610331565b91505092915050565b61042d81610366565b82525050565b60006020820190506104486000830184610424565b92915050565b6000819050919050565b6104618161044e565b811461046c57600080fd5b50565b60008135905061047e81610458565b92915050565b60006020828403121561049a5761049961030b565b5b60006104a88482850161046f565b91505092915050565b6104ba81610310565b82525050565b60006020820190506104d560008301846104b1565b92915050565b60006060820190506104f060008301866104b1565b6104fd6020830185610424565b61050a6040830184610424565b94935050505056fea26469706673582212205cf58d94c1281fdb30f3d9cb6845ff8e085049114c830aa150117fa351e92e2864736f6c634300080a0033",
  "immutableReferences": {},
  "source": "// SPDX-License-Identifier: MIT\r\npragma solidity >=0.4.22 <0.9.0;\r\n\r\ncontract Coins {\r\n    struct Token {\r\n        bytes32 ticker;\r\n        address tickerAddress;\r\n        address chainLinkAddress;\r\n    }\r\n\r\n    mapping(bytes32 => Token) public toknes;\r\n    bytes32[] public tokenList;\r\n\r\n    function AddToken(\r\n        bytes32 ticker,\r\n        address tickerAddress,\r\n        address chainLinkAddress\r\n    ) public {\r\n        toknes[ticker] = Token(ticker, tickerAddress, chainLinkAddress);\r\n        tokenList.push(ticker);\r\n    }\r\n\r\n    function GetTokenAddress(bytes32 ticker) public view returns (address) {\r\n        return toknes[ticker].tickerAddress;\r\n    }\r\n}\r\n",
  "sourcePath": "C:\\Projects\\Crypto-Payment\\DEX\\contracts\\Coins.sol",
  "compiler": {
    "name": "solc",
    "version": "0.8.10+commit.fc410830.Emscripten.clang"
  },
  "schemaVersion": "3.4.3",
  "updatedAt": "2022-02-03T07:23:08.941Z",
  "devdoc": {
    "kind": "dev",
    "methods": {},
    "version": 1
  },
  "userdoc": {
    "kind": "user",
    "methods": {},
    "version": 1
  }
}