{
  "contractName": "Dex",
  "abi": [
    {
      "inputs": [],
      "stateMutability": "nonpayable",
      "type": "constructor"
    },
    {
      "inputs": [
        {
          "internalType": "address",
          "name": "ticker",
          "type": "address"
        },
        {
          "internalType": "address",
          "name": "sender",
          "type": "address"
        },
        {
          "internalType": "address",
          "name": "recipient",
          "type": "address"
        },
        {
          "internalType": "uint256",
          "name": "amount",
          "type": "uint256"
        }
      ],
      "name": "deposit",
      "outputs": [],
      "stateMutability": "payable",
      "type": "function",
      "payable": true
    },
    {
      "inputs": [],
      "name": "dexCoinontractAddreess",
      "outputs": [
        {
          "internalType": "address",
          "name": "",
          "type": "address"
        }
      ],
      "stateMutability": "view",
      "type": "function",
      "constant": true
    }
  ],
  "bytecode": "0x608060405234801561001057600080fd5b50610348806100206000396000f3fe608060405260043610610046576000357c0100000000000000000000000000000000000000000000000000000000900480630284c3f51461004b57806305b739bc14610067575b600080fd5b610065600480360381019061006091906101d6565b610092565b005b34801561007357600080fd5b5061007c610135565b604051610089919061024c565b60405180910390f35b8373ffffffffffffffffffffffffffffffffffffffff166323b872dd8484846040518463ffffffff167c01000000000000000000000000000000000000000000000000000000000281526004016100eb93929190610276565b6020604051808303816000875af115801561010a573d6000803e3d6000fd5b505050506040513d601f19601f8201168201806040525081019061012e91906102e5565b5050505050565b600030905090565b600080fd5b600073ffffffffffffffffffffffffffffffffffffffff82169050919050565b600061016d82610142565b9050919050565b61017d81610162565b811461018857600080fd5b50565b60008135905061019a81610174565b92915050565b6000819050919050565b6101b3816101a0565b81146101be57600080fd5b50565b6000813590506101d0816101aa565b92915050565b600080600080608085870312156101f0576101ef61013d565b5b60006101fe8782880161018b565b945050602061020f8782880161018b565b93505060406102208782880161018b565b9250506060610231878288016101c1565b91505092959194509250565b61024681610162565b82525050565b6000602082019050610261600083018461023d565b92915050565b610270816101a0565b82525050565b600060608201905061028b600083018661023d565b610298602083018561023d565b6102a56040830184610267565b949350505050565b60008115159050919050565b6102c2816102ad565b81146102cd57600080fd5b50565b6000815190506102df816102b9565b92915050565b6000602082840312156102fb576102fa61013d565b5b6000610309848285016102d0565b9150509291505056fea2646970667358221220dbbb511ef5162cc16145edf0b026dc59a6ceec39a4d716a70f6e0766e1e413da64736f6c634300080a0033",
  "immutableReferences": {},
  "source": "// SPDX-License-Identifier: MIT\r\npragma solidity >=0.4.22 <0.9.0;\r\nimport \"@openzeppelin/contracts/token/ERC20/IERC20.sol\";\r\n// import \"./UserCoins.sol\";\r\n\r\n contract Dex  {\r\n    constructor() {}\r\n\r\n    // function addToken(\r\n    //     bytes32 ticker,\r\n    //     address tickerAddress,\r\n    //     address chainLinkAddress\r\n    // ) external {\r\n    //     AddToken(ticker, tickerAddress, chainLinkAddress);\r\n    // }\r\n\r\n    function deposit(\r\n        address ticker,\r\n        address sender,\r\n        address recipient,\r\n        uint256 amount\r\n    ) external payable  {\r\n        // Transfer Token To User\r\n        IERC20(ticker).transferFrom(sender, recipient, amount);\r\n\r\n    }\r\n\r\n    // function withdraw(\r\n    //     bytes32 ticker,\r\n    //     address sender,\r\n    //     uint256 amount\r\n    // ) external {\r\n    //     Withdraw(ticker, sender, amount);\r\n    // }\r\n\r\n    // function userCoinontractAddreess() external view returns (address) {\r\n    //     return ContractAddress();\r\n    // }\r\n\r\n    function dexCoinontractAddreess() external view returns (address) {\r\n        return address(this);\r\n    }\r\n}\r\n",
  "sourcePath": "C:\\Projects\\Crypto-Payment\\DEX\\contracts\\Dex.sol",
  "compiler": {
    "name": "solc",
    "version": "0.8.10+commit.fc410830.Emscripten.clang"
  },
  "schemaVersion": "3.4.3",
  "updatedAt": "2022-02-03T07:24:41.509Z",
  "networkType": "ethereum",
  "devdoc": {
    "kind": "dev",
    "methods": {},
    "version": 1
  },
  "userdoc": {
    "kind": "user",
    "methods": {},
    "version": 1
  }
}