{
  "contractName": "UserCoin",
  "abi": [
    {
      "inputs": [
        {
          "internalType": "bytes32",
          "name": "ticker",
          "type": "bytes32"
        },
        {
          "internalType": "address",
          "name": "tickerAddress",
          "type": "address"
        },
        {
          "internalType": "address",
          "name": "chainLinkAddress",
          "type": "address"
        }
      ],
      "name": "AddToken",
      "outputs": [],
      "stateMutability": "nonpayable",
      "type": "function"
    },
    {
      "inputs": [
        {
          "internalType": "bytes32",
          "name": "ticker",
          "type": "bytes32"
        }
      ],
      "name": "GetTokenAddress",
      "outputs": [
        {
          "internalType": "address",
          "name": "",
          "type": "address"
        }
      ],
      "stateMutability": "view",
      "type": "function"
    },
    {
      "inputs": [
        {
          "internalType": "uint256",
          "name": "",
          "type": "uint256"
        }
      ],
      "name": "tokenList",
      "outputs": [
        {
          "internalType": "bytes32",
          "name": "",
          "type": "bytes32"
        }
      ],
      "stateMutability": "view",
      "type": "function"
    },
    {
      "inputs": [
        {
          "internalType": "bytes32",
          "name": "",
          "type": "bytes32"
        }
      ],
      "name": "toknes",
      "outputs": [
        {
          "internalType": "bytes32",
          "name": "ticker",
          "type": "bytes32"
        },
        {
          "internalType": "address",
          "name": "tickerAddress",
          "type": "address"
        },
        {
          "internalType": "address",
          "name": "chainLinkAddress",
          "type": "address"
        }
      ],
      "stateMutability": "view",
      "type": "function"
    },
    {
      "inputs": [
        {
          "internalType": "address",
          "name": "",
          "type": "address"
        },
        {
          "internalType": "bytes32",
          "name": "",
          "type": "bytes32"
        }
      ],
      "name": "userBalances",
      "outputs": [
        {
          "internalType": "uint256",
          "name": "",
          "type": "uint256"
        }
      ],
      "stateMutability": "view",
      "type": "function"
    },
    {
      "inputs": [
        {
          "internalType": "address",
          "name": "ticker",
          "type": "address"
        },
        {
          "internalType": "address",
          "name": "sender",
          "type": "address"
        },
        {
          "internalType": "address",
          "name": "recipient",
          "type": "address"
        },
        {
          "internalType": "uint256",
          "name": "amount",
          "type": "uint256"
        }
      ],
      "name": "Deposit",
      "outputs": [],
      "stateMutability": "payable",
      "type": "function"
    },
    {
      "inputs": [
        {
          "internalType": "bytes32",
          "name": "ticker",
          "type": "bytes32"
        },
        {
          "internalType": "address",
          "name": "sender",
          "type": "address"
        },
        {
          "internalType": "uint256",
          "name": "amount",
          "type": "uint256"
        }
      ],
      "name": "Withdraw",
      "outputs": [],
      "stateMutability": "nonpayable",
      "type": "function"
    },
    {
      "inputs": [],
      "name": "ContractAddress",
      "outputs": [
        {
          "internalType": "address",
          "name": "",
          "type": "address"
        }
      ],
      "stateMutability": "view",
      "type": "function"
    }
  ],
  "bytecode": "0x608060405234801561001057600080fd5b50610ccf806100206000396000f3fe608060405260043610610098576000357c0100000000000000000000000000000000000000000000000000000000900480637cfff9081161006b5780637cfff9081461016b5780639ead722214610187578063b56e29fd146101c4578063e7284ffe1461020357610098565b80630f6a40f41461009d5780632824429f146100da578063462e85df1461010357806366d11c1a14610140575b600080fd5b3480156100a957600080fd5b506100c460048036038101906100bf9190610862565b61022c565b6040516100d191906108bb565b60405180910390f35b3480156100e657600080fd5b5061010160048036038101906100fc91906108d6565b610251565b005b34801561010f57600080fd5b5061012a60048036038101906101259190610929565b610373565b6040516101379190610965565b60405180910390f35b34801561014c57600080fd5b506101556103b2565b6040516101629190610965565b60405180910390f35b610185600480360381019061018091906109ac565b6103ba565b005b34801561019357600080fd5b506101ae60048036038101906101a99190610a13565b6104f8565b6040516101bb9190610a4f565b60405180910390f35b3480156101d057600080fd5b506101eb60048036038101906101e69190610929565b61051c565b6040516101fa93929190610a6a565b60405180910390f35b34801561020f57600080fd5b5061022a60048036038101906102259190610aa1565b610586565b005b6002602052816000526040600020602052806000526040600020600091509150505481565b60405180606001604052808481526020018373ffffffffffffffffffffffffffffffffffffffff1681526020018273ffffffffffffffffffffffffffffffffffffffff168152506000808581526020019081526020016000206000820151816000015560208201518160010160006101000a81548173ffffffffffffffffffffffffffffffffffffffff021916908373ffffffffffffffffffffffffffffffffffffffff16021790555060408201518160020160006101000a81548173ffffffffffffffffffffffffffffffffffffffff021916908373ffffffffffffffffffffffffffffffffffffffff1602179055509050506001839080600181540180825580915050600190039060005260206000200160009091909190915055505050565b600080600083815260200190815260200160002060010160009054906101000a900473ffffffffffffffffffffffffffffffffffffffff169050919050565b600030905090565b8373ffffffffffffffffffffffffffffffffffffffff1663095ea7b384836040518363ffffffff167c0100000000000000000000000000000000000000000000000000000000028152600401610411929190610af4565b6020604051808303816000875af1158015610430573d6000803e3d6000fd5b505050506040513d601f19601f820116820180604052508101906104549190610b55565b508373ffffffffffffffffffffffffffffffffffffffff166323b872dd8484846040518463ffffffff167c01000000000000000000000000000000000000000000000000000000000281526004016104ae93929190610b82565b6020604051808303816000875af11580156104cd573d6000803e3d6000fd5b505050506040513d601f19601f820116820180604052508101906104f19190610b55565b5050505050565b6001818154811061050857600080fd5b906000526020600020016000915090505481565b60006020528060005260406000206000915090508060000154908060010160009054906101000a900473ffffffffffffffffffffffffffffffffffffffff16908060020160009054906101000a900473ffffffffffffffffffffffffffffffffffffffff16905083565b80600260008473ffffffffffffffffffffffffffffffffffffffff1673ffffffffffffffffffffffffffffffffffffffff1681526020019081526020016000206000858152602001908152602001600020541015610619576040517f08c379a000000000000000000000000000000000000000000000000000000000815260040161061090610c16565b60405180910390fd5b600061062484610373565b90508073ffffffffffffffffffffffffffffffffffffffff1663095ea7b384846040518363ffffffff167c010000000000000000000000000000000000000000000000000000000002815260040161067d929190610af4565b6020604051808303816000875af115801561069c573d6000803e3d6000fd5b505050506040513d601f19601f820116820180604052508101906106c09190610b55565b508073ffffffffffffffffffffffffffffffffffffffff1663a9059cbb84846040518363ffffffff167c0100000000000000000000000000000000000000000000000000000000028152600401610718929190610af4565b6020604051808303816000875af1158015610737573d6000803e3d6000fd5b505050506040513d601f19601f8201168201806040525081019061075b9190610b55565b5081600260008573ffffffffffffffffffffffffffffffffffffffff1673ffffffffffffffffffffffffffffffffffffffff168152602001908152602001600020600086815260200190815260200160002060008282546107bc9190610c65565b9250508190555050505050565b600080fd5b600073ffffffffffffffffffffffffffffffffffffffff82169050919050565b60006107f9826107ce565b9050919050565b610809816107ee565b811461081457600080fd5b50565b60008135905061082681610800565b92915050565b6000819050919050565b61083f8161082c565b811461084a57600080fd5b50565b60008135905061085c81610836565b92915050565b60008060408385031215610879576108786107c9565b5b600061088785828601610817565b92505060206108988582860161084d565b9150509250929050565b6000819050919050565b6108b5816108a2565b82525050565b60006020820190506108d060008301846108ac565b92915050565b6000806000606084860312156108ef576108ee6107c9565b5b60006108fd8682870161084d565b935050602061090e86828701610817565b925050604061091f86828701610817565b9150509250925092565b60006020828403121561093f5761093e6107c9565b5b600061094d8482850161084d565b91505092915050565b61095f816107ee565b82525050565b600060208201905061097a6000830184610956565b92915050565b610989816108a2565b811461099457600080fd5b50565b6000813590506109a681610980565b92915050565b600080600080608085870312156109c6576109c56107c9565b5b60006109d487828801610817565b94505060206109e587828801610817565b93505060406109f687828801610817565b9250506060610a0787828801610997565b91505092959194509250565b600060208284031215610a2957610a286107c9565b5b6000610a3784828501610997565b91505092915050565b610a498161082c565b82525050565b6000602082019050610a646000830184610a40565b92915050565b6000606082019050610a7f6000830186610a40565b610a8c6020830185610956565b610a996040830184610956565b949350505050565b600080600060608486031215610aba57610ab96107c9565b5b6000610ac88682870161084d565b9350506020610ad986828701610817565b9250506040610aea86828701610997565b9150509250925092565b6000604082019050610b096000830185610956565b610b1660208301846108ac565b9392505050565b60008115159050919050565b610b3281610b1d565b8114610b3d57600080fd5b50565b600081519050610b4f81610b29565b92915050565b600060208284031215610b6b57610b6a6107c9565b5b6000610b7984828501610b40565b91505092915050565b6000606082019050610b976000830186610956565b610ba46020830185610956565b610bb160408301846108ac565b949350505050565b600082825260208201905092915050565b7f62616c616e636520746f6f206c6f770000000000000000000000000000000000600082015250565b6000610c00600f83610bb9565b9150610c0b82610bca565b602082019050919050565b60006020820190508181036000830152610c2f81610bf3565b9050919050565b7f4e487b7100000000000000000000000000000000000000000000000000000000600052601160045260246000fd5b6000610c70826108a2565b9150610c7b836108a2565b925082821015610c8e57610c8d610c36565b5b82820390509291505056fea2646970667358221220a09a3eab51439aa730c933b6f3bde4ece4162de9d437d95bd0e15708cb069b3764736f6c634300080a0033",
  "immutableReferences": {},
  "source": "// SPDX-License-Identifier: MIT\r\npragma solidity >=0.4.22 <0.9.0;\r\n\r\nimport \"./Coins.sol\";\r\nimport \"@openzeppelin/contracts/token/ERC20/IERC20.sol\";\r\n\r\ncontract UserCoin is Coins {\r\n    mapping(address => mapping(bytes32 => uint256)) public userBalances;\r\n\r\n    function Deposit(\r\n        address ticker,\r\n        address sender,\r\n        address recipient,\r\n        uint256 amount\r\n    ) public payable {\r\n        // Find Token Address\r\n        // address tokenAddress = super.GetTokenAddress(ticker);\r\n        // Check User Amount\r\n        IERC20(ticker).approve(sender, amount);\r\n        // Transfer Token To User\r\n        IERC20(ticker).transferFrom(sender, recipient, amount);\r\n        // Add Amout To User Balances\r\n        // userBalances[recipient][ticker] += amount;\r\n    }\r\n\r\n    function Withdraw(\r\n        bytes32 ticker,\r\n        address sender,\r\n        uint256 amount\r\n    ) public {\r\n        // Check User Balance\r\n        require(userBalances[sender][ticker] >= amount, \"balance too low\");\r\n        // Find Token Address\r\n        address tokenAddress = super.GetTokenAddress(ticker);\r\n        // Check User Amount\r\n        IERC20(tokenAddress).approve(sender, amount);\r\n        // Transfer Token To User\r\n        IERC20(tokenAddress).transfer(sender, amount);\r\n        // Add Amout To User Balances\r\n        userBalances[sender][ticker] -= amount;\r\n    }\r\n\r\n    function ContractAddress() public view returns (address) {\r\n        return address(this);\r\n    }\r\n}\r\n",
  "sourcePath": "C:\\Projects\\Crypto-Payment\\DEX\\contracts\\UserCoins.sol",
  "compiler": {
    "name": "solc",
    "version": "0.8.10+commit.fc410830.Emscripten.clang"
  },
  "schemaVersion": "3.4.3",
  "updatedAt": "2022-02-03T07:23:08.946Z",
  "devdoc": {
    "kind": "dev",
    "methods": {},
    "version": 1
  },
  "userdoc": {
    "kind": "user",
    "methods": {},
    "version": 1
  }
}